:020000040007F3
:10F00000040108081100010039BC4F76A99C792A37
:10F010002C21F8571FACE882B83761B3B2838387DD
:10F02000C647115EF4D2AB70044B45C618B277A048
:10F03000F760929D920D0271F5B5F97AFC15FC40CE
:10F04000851537B50945C09F030012000060020016
:10F050000010050003001000001000000060020016
:10F06000030011000080070000600000050002009E
:10F070000101010159000000010001000000FFFF33
:0CF0800002000400FFFFFFFFFFFFFF7F06
:00000001FF
