:020000022000DC
:1060000000FD0020DD3805000539050007390500D1
:10601000093905000B3905000D39050000000000A5
:106020000000000000000000000000000F39050023
:10603000113905000000000013390500153905006D
:106040001739050017390500A56D0200173905003D
:10605000173905001739050019B80200173905006E
:106060001739050017390500110905001739050012
:1060700017390500173905001739050017390500CC
:1060800017390500C12C05001F74040017390500DD
:10609000312D050017390500CDC302001739050061
:1060A000173905001739050017390500173905009C
:1060B0001739050017390500000000000000000036
:1060C000173905001739050017390500173905007C
:1060D00017390500173905001739050000000000C1
:1060E00000000000000000000000000000000000B0
:1060F00000000000000000000000000000000000A0
:10610000000000000000000000000000000000008F
:10611000000000000000000000000000000000007F
:10612000000000000000000000000000000000006F
:10613000000000000000000000000000000000005F
:10614000000000000000000000000000000000004F
:10615000000000000000000000000000000000003F
:10616000000000000000000000000000000000002F
:10617000000000000000000000000000000000001F
:10618000000000000000000000000000000000000F
:1061900000000000000000000000000000000000FF
:1061A00000000000000000000000000000000000EF
:1061B00000000000000000000000000000000000DF
:1061C00000000000000000000000000000000000CF
:1061D00000000000000000000000000000000000BF
:1061E00000000000000000000000000000000000AF
:1061F000000000000000000000000000000000009F
:106200000348044B834202D0034B03B11847704745
:10621000B82E0020B82E0020000000000548064BD4
:106220001B1AD90F01EBA301491002D0034B03B194
:1062300018477047B82E0020B82E0020000000003C
:1062400010B5064C237843B9FFF7DAFF044B13B1BE
:106250000448AFF300800123237010BDB82E002046
:1062600000000000747D050008B5054B1BB1054911
:106270000548AFF30080BDE80840FFF7CFBF00BF7F
:1062800000000000BC2E0020747D0500A3F5803ABC
:10629000704700BF174B002B08BF134B9D46FFF7FD
:1062A000F5FF00218B460F461348144A121A2FF0AF
:1062B00093FE0E4B002B00D098470D4B002B00D0C7
:1062C00098470020002104000D000D48002802D04E
:1062D0000C48AFF300802FF0AFFE2000290000F043
:1062E0008FFC2FF0A5FD00BF00000800000000009B
:1062F0000000000000FD0020B82E002018690020DA
:10630000000000000000000041DF704700BF184699
:1063100080B400AF034BD3F804351846BD465DF892
:10632000047B70470010014090B585B002AF7860E3
:106330007B681B78042B08D0042B00F3CF80012B43
:1063400000F09980022B52D0C8E0674B1B6803F421
:106350008043002B2AD0654B1B68032B26DD2F21A1
:1063600063482FF041FE0346002B06D02F216048E2
:106370002FF03AFE03465C1C0EE05C215C482FF0D7
:1063800033FE0346002B06D05C2159482FF02CFE2B
:1063900003465C1C00E0564CFFF7BAFF0346554A23
:1063A00000924F222146042023F0EEFA7B68B3F8D6
:1063B0000F309AB27B68B3F805309BB29A4211D184
:1063C0007B68D3F80B207B68D3F801309A4209D15F
:1063D0007B68D3F811207B68D3F807309A4201D24A
:1063E000012300E0002303F00103DBB277E03E4B22
:1063F0001B6803F48043002B2AD03C4B1B68032B03
:1064000026DD2F213A482FF0EFFD0346002B06D062
:106410002F2137482FF0E8FD03465C1C0EE05C217D
:1064200033482FF0E1FD0346002B06D05C213048B5
:106430002FF0DAFD03465C1C00E02D4CFFF768FFEF
:1064400003462D4A009255222146042023F09CFA4F
:106450007B68DA7A7B685B789A4207D17B681A7B23
:106460007B689B789A4201D2012300E0002303F06D
:106470000103DBB233E01C4B1B6803F48043002BA9
:106480002AD01A4B1B68032B26DD2F2118482FF02A
:10649000ABFD0346002B06D02F2115482FF0A4FD9D
:1064A00003465C1C0EE05C2111482FF09DFD034665
:1064B000002B06D05C210E482FF096FD03465C1C95
:1064C00000E00B4CFFF724FF03460C4A00925A22CF
:1064D0002146042023F058FA002300E00023184648
:1064E0000C37BD4690BD00BF3C2E0020402E002042
:1064F000AC610500C8610500E0610500F8610500B8
:1065000080B584B000AF3A463B1D1146184619F0DD
:106510002DF8F860FB68002B04D0114A6A21F86856
:106520002DF010FA7B681A460E4B13445B08BB60D3
:106530000D4ABB68934207D3BB6803F6FF7323F48D
:106540007F6323F00F0306E0074B03F6FF7323F48A
:106550007F6323F00F0318461037BD4680BD00BF90
:10656000AC610500006002002C81050090B58FB081
:1065700002AF78607B681B78093B042B00F2DC805B
:1065800001A252F823F000BFF76602000167020083
:10659000136702009D6502009D6502007B6804335D
:1065A0001846FFF7C1FE0346002B4CD0FFF7A8FFAB
:1065B0007862664B1B6803F48043002B2DD0644B3C
:1065C0001B68032B29DD2F2162482FF00DFD0346A8
:1065D000002B06D02F215F482FF006FD03465C1CE0
:1065E0000EE05C215B482FF0FFFC0346002B06D039
:1065F0005C2158482FF0F8FC03465C1C00E0554C29
:10660000FFF786FE02467B6A0193534B00931346C5
:106610007B222146042023F0B7F97B6818797B6838
:1066200005337A6A194618F09BFA38623B6A002BE8
:1066300004D0484A7D21386A2DF084F900210F20CA
:1066400004F0EAFA7AE007F10C03184618F09CFB14
:10665000F862FB6A002B71D13B7E012B08D03B7E98
:10666000022B05D03B7E082B02D03B7E092B65D147
:10667000364B1B6803F48043002B2AD0344B1B6835
:10668000032B26DD2F2133482FF0AEFC0346002BD1
:1066900006D02F212F482FF0A7FC03465C1C0EE0EC
:1066A0005C212C482FF0A0FC0346002B06D05C2177
:1066B00028482FF099FC03465C1C00E0254CFFF7AE
:1066C00027FE0346254A009294222146042023F007
:1066D0005BF97B681A797B6805331946104618F018
:1066E0009DFAB862BB6A002B28D01A4A9521B86A75
:1066F0002DF028F922E00121052004F08DFA20E098
:1067000000210F2004F088FA0121032004F084FA0C
:1067100017E000210F2004F07FFA7B681B791846F0
:1067200018F016FBF861FB69002B09D0094AA62175
:10673000F8692DF007F903E000BF02E000BF00E0B8
:1067400000BF00BF3437BD4690BD00BF3C2E0020C7
:10675000402E0020AC610500106205003C6205007F
:1067600090B583B002AF1E4B1B6803F48043002B2F
:106770002AD01C4B1B68032B26DD2F211A482FF033
:1067800033FC0346002B06D02F2117482FF02CFC9A
:1067900003465C1C0EE05C2113482FF025FC0346E9
:1067A000002B06D05C2110482FF01EFC03465C1C19
:1067B00000E00D4CFFF7ACFD03460C4A0092B122FD
:1067C0002146042023F0E0F80322C8210F2004F022
:1067D0004DFA18F0B9FE00BF0437BD4690BD00BFAA
:1067E0003C2E0020402E0020AC6105004C620500CC
:1067F00080B582B000AF78607B681B78232B01D115
:10680000FFF7AEFF00BF0837BD4680BD90B58FB023
:1068100002AF3B462422002118462FF0DDFB012366
:106820003B700723FB7006233B724A4B3B613B46A0
:106830004949184618F02CFDF862FB6A002B70D00D
:10684000FB6A0B2B62D1454B1B6803F48043002B82
:106850002AD0434B1B68032B26DD2F2141482FF004
:10686000C3FB0346002B06D02F213E482FF0BCFB74
:1068700003465C1C0EE05C213A482FF0B5FB034652
:10688000002B06D05C2137482FF0AEFB03465C1C82
:1068900000E0344CFFF73CFD0346334A0092CC2223
:1068A0002146042023F070F82C4B1B6803F480432E
:1068B000002B38D02A4B1B68032B34DD2F212948AD
:1068C0002FF092FB0346002B06D02F2125482FF0F6
:1068D0008BFB03465C1C0EE05C2122482FF084FBFE
:1068E0000346002B06D05C211E482FF07DFB03469B
:1068F0005C1C00E01B4CFFF70BFD03461B4A00929B
:10690000CD222146042023F03FF80CE0FB6ABB6255
:10691000BB6A002B08D0134AD221B86A2DF012F8B6
:1069200002E000BF00E000BF002003F0C9FE786273
:106930007B6A002B04D00B4AD621786A2DF002F82E
:106940000B4B0C4A1A600A481EF05CFD00BF34373E
:10695000BD4690BDF1670200E02E00203C2E0020D5
:10696000402E0020AC61050068620500B862050099
:10697000D42E00206D65020090B585B002AF2CF0DA
:10698000DDF978607B68002B04D03B4ADF21786812
:106990002CF0D8FF04F0C0F9384A04214CF28700EB
:1069A00022F0D6FF364B1B6803F48043002B2AD01D
:1069B000344B1B68032B26DD2F212F482FF014FBAF
:1069C0000346002B06D02F212B482FF00DFB03464A
:1069D0005C1C0EE05C2128482FF006FB0346002BD0
:1069E00006D05C2124482FF0FFFA03465C1C00E02F
:1069F000214CFFF78DFC0346234A0092E3222146F7
:106A0000042022F0C1FF05F0F9F8FFF7FFFE1C4B50
:106A10001B6803F48043002B2AD01A4B1B68032BFE
:106A200026DD2F2114482FF0DFFA0346002B06D075
:106A30002F2111482FF0D8FA03465C1C0EE05C2190
:106A40000D482FF0D1FA0346002B06D05C210A48EE
:106A50002FF0CAFA03465C1C00E0074CFFF758FC15
:106A600003460A4A0092E9222146042022F08CFFC4
:106A700000BF0C37BD4690BDAC6105001599040000
:106A80003C2E0020402E0020F46205001C6305000F
:106A900090B58DB002AF524B1B7883F00103DBB28F
:106AA000002B19D03B4600221A605A609A60DA60C7
:106AB0001A615A619A614B4B7B614B4BBB613B4600
:106AC000184603F03BFF78627B6A002B04D0474AEC
:106AD000FA21786A2CF036FF454B1B6803F480439B
:106AE000002B2AD0434B1B68032B26DD2F213F4868
:106AF0002FF07AFA0346002B06D02F213B482FF0C7
:106B000073FA03465C1C0EE05C2138482FF06CFAE7
:106B10000346002B06D05C2134482FF065FA03466B
:106B20005C1C00E0314CFFF7F3FB0346324A009255
:106B3000FE222146042022F027FF03F0EDFD3862FB
:106B40003B6A002B04D0294AFF21386A2CF0FAFE58
:106B500018F07AFD0346184604F0E6FE18F008FC2B
:106B6000F861FB69002B05D0204A4FF48271F86967
:106B70002CF0E8FE1E4B1B6803F48043002B2BD047
:106B80001C4B1B68032B27DD2F2118482FF02CFAF4
:106B90000346002B06D02F2114482FF025FA034678
:106BA0005C1C0EE05C2111482FF01EFA0346002BFE
:106BB00006D05C210D482FF017FA03465C1C00E05C
:106BC0000A4CFFF7A5FB03460C4A00924FF4837270
:106BD0002146042022F0D8FE00BF2C37BD4690BDD0
:106BE000E02E00203863050088630500AC610500D5
:106BF0003C2E0020402E00205063050070630500ED
:106C000080B500AFFFF7B8FEFFF742FFFFF77CFB50
:106C1000FCE7000080B483B000AF0346FB7197F936
:106C20000730002B0BDBFB7903F01F02074997F9B4
:106C300007305B09012000FA02F241F8232000BF6F
:106C40000C37BD465DF8047B704700BF00E100E0F3
:106C500080B483B000AF03463960FB7197F9073009
:106C6000002B0ADB3B68DAB20C4997F90730520176
:106C7000D2B20B4483F800230AE03B68DAB2084939
:106C8000FB7903F00F03043B5201D2B20B441A7696
:106C900000BF0C37BD465DF8047B704700E100E0A3
:106CA00000ED00E080B483B000AF78604FF0A04307
:106CB00018460C37BD465DF8047B704780B584B03C
:106CC00000AF7860084611461A460346FB700B4633
:106CD000BB7013467B703B1D1846FFF7E3FFF8605F
:106CE000FA78BB785B001A437B789B001A433B7EA3
:106CF0001B0242EA03013B7F1B047A681943FB68CD
:106D000002F5E07243F8221000BF1037BD4680BD87
:106D100080B584B002AF7860002301930023009314
:106D20000023012201217868FFF7C8FF00BF083760
:106D3000BD4680BD80B584B002AF78600B46FB7065
:106D4000FB78002201920022009200220021786844
:106D5000FFF7B4FF00BF0837BD4680BD80B584B0E3
:106D600000AF78603B1D1846FFF79CFFF8607B681A
:106D7000012202FA03F31946F86800F004F800BF94
:106D80001037BD4680BD80B483B000AF78603960F5
:106D90007B683A68C3F8082500BF0C37BD465DF82C
:106DA000047B704780B500AF00F066F800BF80BD7F
:106DB00080B582B000AF786039607B68002B02D06C
:106DC0003B68002B01D10E2349E0274A7B68136002
:106DD000264A3B68136003210820FFF7ABFF03211D
:106DE0000720FFF7A7FF0620FFF792FF0620FFF717
:106DF000B5FF0520FFF78CFF1D4B0622C3F80C25BD
:106E00001B4B0822C3F81425194B0722C3F8102581
:106E1000174B0522C3F80825154B0122C3F86C2532
:106E2000134B144AC3F82425114B0422C3F8002540
:106E30000F4B8422C3F804230D4B0022C3F8082112
:106E40000B4B0022C3F81C21094B01221A600621BA
:106E50000220FFF7FDFE0220FFF7DCFE00231846AC
:106E60000837BD4680BD00BFE42E0020E82E00207C
:106E70000020004000E0D70180B500AF12E0184BC1
:106E80000022C3F80821164BD3F80831154B1B68B4
:106E9000002B07D0134B1B68114AD2F81825D2B229
:106EA00010469847104B1B78002B04D00C4BD3F89E
:106EB0000831002BE3D10A4BD3F81C31002B0DD045
:106EC000074B0022C3F81C21054BD3F81C31074B9C
:106ED0001B68002B02D0054B1B68984700BF80BD84
:106EE00000200040E42E0020E12E0020E82E0020AB
:106EF00080B483B000AF0346FB71044AFB79137082
:106F000000BF0C37BD465DF8047B7047E12E0020C2
:106F100080B400AF054B0022C3F81C21034B0122B3
:106F20009A6000BFBD465DF8047B704700200040BA
:106F300080B400AF034B0122DA6000BFBD465DF8AC
:106F4000047B70470020004080B483B000AF03464C
:106F5000FB71054AFB79C2F81C3500BF0C37BD46F2
:106F60005DF8047B704700BF0020004080B500AF93
:106F7000034B1B68184620F08BFB00BF80BD00BF91
:106F80002433002080B584B000AF03460A46FB716D
:106F90001346BB7107F10C031946032000F006FAF3
:106FA0000346002B0CD1FB6884225A70FB68BA7927
:106FB0009A70FB68FA79DA70FB68184600F01AFAE2
:106FC00000BF1037BD4680BD80B584B000AF78608B
:106FD0007B681B88002B2DD0184B1B680433FB608B
:106FE0007B681B881A46FB681B7801339A4210D0D5
:106FF000124B1B685B7819468420FFF7C3FF0F4BC9
:107000001B6819460E481BF08FFD0C4B00221A60BE
:107010000DE00A4B1968094B1B681B881A46084883
:107020001BF06CFC054B00221A6001F0C7F87B686E
:1070300000221A8000BF1037BD4680BD1C330020DF
:107040001033002080B582B000AF0346FB80FB8880
:10705000012B0BD916481BF008FB03461A46FB8888
:10706000934203D8FB88B3F5807F0AD9FB88013BA4
:107070009AB2104B1A8000218420FFF783FF00236F
:1070800011E0FB881A460C4909481BF0E5FB034652
:10709000002B07D0094AFB8813800020FFF728FF48
:1070A000002300E0012318460837BD4680BD00BF1D
:1070B00010330020283300201C330020063100202C
:1070C00080B584B000AF78600B46FB70FB789BB254
:1070D0000133FB8101237B73154B1B88002B02D0EE
:1070E000134B1B88FB81FB891846FFF7ABFF034658
:1070F0007B737B7B002B16D00D4B1B88002B12D093
:107100000B4B00221A80FB89DAB20A4B1B687968A4
:107110000988013AD2B20B441A717B681B8801338B
:107120009AB27B681A807B7B18461037BD4680BDBB
:10713000063100201C33002080B584B000AF786099
:107140000B46FB707B681B88002B0AD1FB78194625
:107150007868FFF7B5FF034683F00103DBB2002B2D
:1071600020D1124B1B687A6812881344FA781A717E
:107170007B681B8801339AB27B681A800B4B1B68B3
:107180000433FB60094B1B68002B0CD07B681B8809
:107190001A46FB681B7801339A4204D17868FFF7DE
:1071A00013FF00E000BF1037BD4680BD1C33002038
:1071B00080B582B000AF1F4B1B6804337B601E4B51
:1071C0001B881A467B681B7801339A4216D11A4BEA
:1071D0001B8801339AB2184B1A80164B1B6819464C
:1071E00016481BF0A1FC134B00221A60FFF7A0FE0B
:1071F000134B00221A70FFF7B9FE17E07B681B786B
:107200001A460D4B1B889A4210DB0A4B1B680A4A30
:10721000128813441B79FB70074B1B8801339AB209
:10722000054B1A80FB781846FFF78EFE00BF083723
:10723000BD4680BD0031002004310020F430002024
:107240002033002080B582B000AF0346FB710A4BAB
:107250001B88002B06D0084B1B88013B9AB2064BBB
:107260001A8004E0FB7919460448FFF765FF00BF68
:107270000837BD4680BD00BF283300202A330020D8
:1072800080B582B000AF0D4B1B78002B04D17B463C
:107290007B60786817F0B6FF094B1B68002B07D19D
:1072A000FFF746FE054B00221A70FFF75FFE01E074
:1072B000FFF77EFF00BF0837BD4680BD20330020AA
:1072C0000031002080B582B000AF104B1B78002B3E
:1072D00016D10F490F481BF06CFB0346002B0FD152
:1072E0000A4B01221A700A4B1B681B79FB71FB7950
:1072F0001846FFF729FE084B01221A80FFF708FE07
:10730000012318460837BD4680BD00BF203300204A
:1073100000310020F43000200431002080B582B01C
:1073200000AF4FF40272164916481BF0BBF94FF438
:107330000272154915481BF0B5F915491548FFF7B4
:1073400037FD0346002B04D07B467B60786817F03E
:1073500059FF0120FFF7CCFD0F4B00221A700F4B95
:1073600000221A800E4B00221A800E4820F05EF98F
:1073700003460D4A136000BF0837BD4680BD00BFFD
:10738000EC2E0020F43000200831002010330020C3
:107390008172020045720200203300200631002075
:1073A00004310020C57202002433002080B584B06F
:1073B00000AF03463960FB80FB8801339AB207F1C6
:1073C000080319460A481BF047FAF860FB68002BCF
:1073D00008D1BB681A1D3B681A603B681B68FA88B5
:1073E000D2B21A70FB6818461037BD4680BD00BF88
:1073F000F430002080B586B000AF78607B68002B49
:1074000004D17B467B61786917F0FCFE7B68043B06
:107410003B613B699B78012B04D07B46FB60F8689D
:1074200017F0F0FE7B681B789AB23B691B889A4282
:1074300004D97B46BB60B86817F0E4FE20F086F8FC
:10744000FFF794FD3B691B881A46396904481BF015
:1074500055FA20F0B1F800BF1837BD4680BD00BF17
:10746000F430002080B584B000AF786007F10C03E1
:1074700019460E481BF09DFA0346002B11D1FB68FC
:10748000191DFB681B881A4678682EF003FEFB68FE
:10749000194606481BF048FB0120FFF729FD012390
:1074A00000E0002318461037BD4680BD1033002091
:1074B00080B584B000AFB9607A601A460346FB73AA
:1074C0001346BB81BB68002B0AD1B86800F098FE58
:1074D00003461946BB89F87B7A6800F003FF09E090
:1074E000B86800F08DFE03461946F87B00230022A1
:1074F00000F0F8FE00BF1037BD4680BD80B586B0F5
:1075000000AFF860B9607A6000237B6135E0FB680A
:107510005A787B69DB00B9680B441B789A4229D101
:107520007B69DB00BA6813445A78FB681B789A427F
:1075300010D2FB681B7818467B69DB00BA681344DD
:107540005B7801337A69D200B9680A4492781344AF
:10755000984207DDFB68587800230022842100F060
:10756000C1FE15E07B69DB00BA6813445B68F8680C
:1075700098470DE07B6901337B617A697B689A42A9
:10758000C5D3FB68587800230022822100F0AAFEB0
:107590001837BD4680BD90B585B000AF78607B6878
:1075A0005B889AB27B689B889BB21946104607F0AD
:1075B000EFFDF8607B685C78F86800F021FE034618
:1075C000194600230022204600F08CFE00BF14372D
:1075D000BD4690BD80B586B000AF78607B685B88A3
:1075E0009BB207F10E021146184607F00DFE7861B6
:1075F000FB893B827B68587807F110020223796986
:10760000FFF756FF00BF1837BD4680BD90B585B067
:1076100000AF78607B685B8898B27B6819797B687B
:107620005B791A4607F0E2FEF8607B685C78F868E0
:1076300000F0E6FD0346194600230022204600F034
:1076400051FE00BF1437BD4690BD80B584B000AF79
:1076500078607B685B8898B207F108035A1C07F1D1
:107660000803194607F046FFF8607B68587807F171
:1076700008020223F968FFF71BFF00BF1037BD4661
:1076800080BD90B585B000AF78607B680233FB6049
:10769000FB681B889AB2FB685B889BB21946104650
:1076A00007F0E2FFB8607B685C78B86800F0A8FD7E
:1076B0000346194600230022204600F013FE00BFB7
:1076C0001437BD4690BD90B585B000AF78607B683B
:1076D0000233FB60FB681B889AB2FB685B889BB235
:1076E0001946104608F024F8B8607B685C78B868E2
:1076F00000F086FD0346194600230022204600F0D4
:10770000F1FD00BF1437BD4690BD90B5ADF5417D8C
:1077100000AF07F54073A3F53F73186007F540739A
:10772000A3F2F6237D221A8007F54073A3F53F7379
:107730001B685B889BB207F10A0207F10C0118462F
:1077400008F05EF8C7F8FC02D7F8FC32002B03D033
:10775000D7F8FC32092B2AD107F54073A3F2F623A0
:107760001A8807F54073A3F580731A8007F54073F4
:10777000A3F2F6231B885A0007F10C0107F50073EA
:10778000023318462EF086FC07F54073A3F53F73CD
:107790001B685C78D7F8FC0200F032FD03461946FE
:1077A00007F50072FC23204600F09CFD11E007F570
:1077B0004073A3F53F731B685C78D7F8FC0200F0B8
:1077C0001FFD0346194600230022204600F08AFDD3
:1077D00000BF00BF07F54177BD4690BD90B585B0AD
:1077E00000AF78607B680233FB60FB681B889AB24D
:1077F000FB685B889BB21946104608F065F8B860D4
:107800007B685C78B86800F0FBFC034619460023EF
:107810000022204600F066FD00BF1437BD4690BD33
:1078200090B585B000AF78607B680233FB60FB6881
:107830001B889AB2FB685B889BB21946104608F019
:1078400087F8B8607B685C78B86800F0D9FC0346BC
:10785000194600230022204600F044FD00BF1437E3
:10786000BD4690BD90B5ADF5417D00AF07F54073C5
:10787000A3F53F73186007F54073A3F2F6237D224A
:107880001A8007F54073A3F53F731B685B889BB2B2
:1078900007F10A0207F10C01184608F09FF8C7F833
:1078A000FC02D7F8FC32002B03D0D7F8FC32092BAE
:1078B0002AD107F54073A3F2F6231A8807F540731F
:1078C000A3F580731A8007F54073A3F2F6231B8893
:1078D0005A0007F10C0107F50073023318462EF029
:1078E000D9FB07F54073A3F53F731B685C78D7F8A5
:1078F000FC0200F085FC0346194607F50072FC23E4
:10790000204600F0EFFC11E007F54073A3F53F734C
:107910001B685C78D7F8FC0200F072FC034619463D
:1079200000230022204600F0DDFC00BF00BF07F569
:107930004177BD4690BD90B585B000AF78607B685B
:107940000233FB60FB681B889AB2FB685B889BB2C2
:107950001946104608F098F8B8607B685C78B868FB
:1079600000F04EFC0346194600230022204600F09A
:10797000B9FC00BF1437BD4690BD80B586B000AFDE
:1079800078607B685B889BB207F10E02114618464F
:1079900008F0B6F87861FB893B827B68587807F17C
:1079A000100202237969FFF783FD00BF1837BD4637
:1079B00080BD90B585B000AF78607B680233FB6016
:1079C000FB681B889AB2FB689B781946104608F042
:1079D00015F9B8607B685C78B86800F011FC034664
:1079E000194600230022204600F07CFC00BF14371B
:1079F000BD4690BD80B584B000AF78607B685B8881
:107A00009BB207F108021146184608F037F9F860F2
:107A10007B68587807F108020123F968FFF748FDF1
:107A200000BF1037BD4680BD90B585B000AF78600F
:107A30007B680233FB60FB681B889AB2FB685B883B
:107A40009BB21946104608F043F9B8607B685C7831
:107A5000B86800F0D5FB03461946002300222046F3
:107A600000F040FC00BF1437BD4690BD80B586B025
:107A700000AF78607B685B889BB207F10E0211460D
:107A8000184608F069F97861FB893B827B68587871
:107A900007F1100202237969FFF70AFD00BF1837CA
:107AA000BD4680BD80B584B000AF78607B685B88E0
:107AB0009BB207F108021146184608F071F9F86008
:107AC0007B68587807F108020123F968FFF7F0FC9A
:107AD00000BF1037BD4680BD80B584B000AF786070
:107AE0007B685B889BB207F108021146184608F0D4
:107AF0007BF9F8607B68587807F108020123F96880
:107B0000FFF7D6FC00BF1037BD4680BD80B586B0FC
:107B100000AF78607B685B889BB207F10C0211466E
:107B2000184608F085F97861FB683B617B685878F6
:107B300007F1100204237969FFF7BAFC00BF183778
:107B4000BD4680BD80B586B000AF78607B680233EB
:107B50007B617B691B8898B207F10A027B69D3F8C5
:107B600002100B46194608F097F938617B89BB81F2
:107B70007B68587807F10C0202233969FFF798FCFB
:107B800000BF1837BD4680BD90B5ADF5417D00AF53
:107B900007F54073A3F53F73186007F54073A3F230
:107BA000F6237D221A8007F54073A3F53F731B6807
:107BB0005B889BB207F10A0207F10C01184608F036
:107BC000BBF9C7F8FC02D7F8FC32002B03D0D7F87A
:107BD000FC32092B2AD107F54073A3F2F6231A8849
:107BE00007F54073A3F580731A8007F54073A3F27D
:107BF000F6231B885A0007F10C0107F500730233C6
:107C000018462EF047FA07F54073A3F53F731B683B
:107C10005C78D7F8FC0200F0F3FA0346194607F542
:107C20000072FC23204600F05DFB11E007F5407375
:107C3000A3F53F731B685C78D7F8FC0200F0E0FA0C
:107C40000346194600230022204600F04BFB00BFEC
:107C500000BF07F54177BD4690BD000080B584B0F8
:107C600000AF78607B685B78F42B04D97B46FB60BF
:107C7000F86817F0C7FA152203497868FFF73EFC49
:107C800000BF1037BD4680BD9863050080B58CB03D
:107C900000AF78607B685B78403B142B00F29780E4
:107CA00001A252F823F000BFFD7C02000D7D02000E
:107CB000FD7C0200FD7C0200FD7C0200FD7C0200D8
:107CC000CF7D0200CF7D0200CF7D0200CF7D02007C
:107CD000CF7D0200CF7D0200CF7D0200CF7D02006C
:107CE000CF7D0200CF7D0200CF7D0200CF7D02005C
:107CF000CF7D0200617D0200937D02007B68587891
:107D000000230022822100F0EDFA75E07B681B78E9
:107D1000012B07D07B68587800230022842100F0D3
:107D2000E1FA69E007F12403184628F065FB97F8AB
:107D30002430C3F34603DBB23B7707F12403591C1D
:107D400007F11C030133062218462EF0A3F97B68C5
:107D5000587807F11C020723002100F0C3FA4BE01A
:107D60007B681B78112B07D07B6858780023002292
:107D7000842100F0B7FA3FE07B680233184617F021
:107D800025FC7B68587800230022002100F0AAFA25
:107D900032E07B681B78012B07D07B685878002382
:107DA0000022842100F09EFA26E017F04DFC0146E7
:107DB00007F10C03102218462EF06CF97B685878F6
:107DC00007F10C021023002100F08CFA14E07B680C
:107DD0005B783F2B03D97B685B785F2B04D97B46AC
:107DE000FB62F86A17F00EFA7B68587800230022CD
:107DF000822100F077FA00BF00BF3037BD4680BD5A
:107E000090B585B000AF78607B685B78782B16D131
:107E10007B68981C7B681B78013B0022194616F092
:107E20005DFEF8607B685C78F86800F0E9F903466D
:107E3000194600230022204600F054FA07E07B6830
:107E4000587800230022822100F04CFA00BF00BFC6
:107E50001437BD4690BD000080B400AF034BD3F88B
:107E600004351846BD465DF8047B7047001001409C
:107E700090B5C7B002AF07F58873A3F58673186095
:107E8000494B00221A707FE0002387F80F3100234E
:107E9000C7F808312BE0454AD7F8083112F83320EB
:107EA00007F58873A3F584735B789A421AD83F4A22
:107EB000D7F80831DB0013445A7807F58873A3F527
:107EC00084735B789A420DD3384AD7F80831DB00C7
:107ED00013445B6807F1080210469847012387F8AE
:107EE0000F3108E0D7F808310133C7F80831D7F867
:107EF0000831082BCFD997F80F3183F00103DBB29B
:107F0000002B41D02A4B1B6803F40043002B31D0D7
:107F1000284B1B68012B2DDD2F2127482EF064F8FC
:107F20000346002B06D02F2123482EF05DF8034690
:107F30005C1C0EE05C2120482EF056F80346002B16
:107F400006D05C211C482EF04FF803465C1C00E074
:107F5000194CFFF781FF024607F58873A3F5847378
:107F60005B780193154B0093134681222146022032
:107F700021F00AFD07F58873A3F584735878002370
:107F80000022822100F0AEF907F108031846FFF73E
:107F900069FA0346002B7FF477AF00BF00BF07F5F7
:107FA0008A77BD4690BD00BF2D3300204064050098
:107FB0003C2E0020402E002088640500A4640500AB
:107FC00080B500AF064B1B78002B01D0082305E0DD
:107FD000FFF7A4F9024B01221A700023184680BD56
:107FE0002C33002090B585B002AF4B4B1B78012B92
:107FF00032D04A4B1B6803F40043002B2AD0484B75
:108000001B68012B26DD2F2146482DF0EDFF03468E
:10801000002B06D02F2143482DF0E6FF03465C1CC1
:108020000EE05C213F482DF0DFFF0346002B06D019
:108030005C213C482DF0D8FF03465C1C00E0394C25
:10804000FFF70AFF0346384A009299222146022090
:1080500021F09AFC08235BE02F4B02221A703B466A
:108060001946042000F064F878607B68002B37D054
:108070002A4B1B6803F40043002B2DD0284B1B68B0
:10808000002B29DD2F2127482DF0AEFF0346002BC2
:1080900006D02F2123482DF0A7FF03465C1C0EE0DD
:1080A0005C2120482DF0A0FF0346002B06D05C2168
:1080B0001C482DF099FF03465C1C00E0194CFFF7AB
:1080C000CBFE02467B680193184B00931346A32214
:1080D0002146012021F058FC0F4B01221A7016E0B6
:1080E0003B6881225A703B6802229A704FF08043AD
:1080F000D3F80034DAB23B6802F00802D2B2DA7088
:108100003B68FE221A713B68184600F041F87B6814
:1081100018460C37BD4690BD2C3300203C2E002065
:10812000402E002088640500BC640500D064050072
:1081300080B584B000AF03463960FB80134B1B78D9
:10814000022B01D008231DE0FB8839681846FFF791
:108150002DF9F860FB68092B08D0FB68092B0BD8B8
:10816000FB68002B06D0FB68042B05D102F094FAC3
:10817000FB6807E0FB6805E07B46BB60B86817F06A
:1081800041F8FB6818461037BD4680BD2C330020EF
:1081900080B584B000AF7860074B1B78022B04D009
:1081A0007B46FB60F86817F02DF87868FFF722F936
:1081B00000BF1037BD4680BD2C33002080B500AF16
:1081C0000C4B1B7883F00103DBB2002B10D00A4B61
:1081D0001B78022B0CD1074B01221A700021074893
:1081E0001FF096F90346002B02D0024B00221A70B2
:1081F00000BF80BD2D3300202C330020717E020093
:1082000080B483B000AF78607B68112B2AD87B687C
:10821000112B53D801A252F823F000BF7182020043
:1082200075820200798202007D8202008182020052
:1082300085820200898202008D8202009182020002
:1082400095820200998202009D820200A1820200B2
:10825000A5820200A9820200AD820200B182020062
:10826000B58202007B6843F20102934224D025E0EC
:10827000002324E0832322E0832320E081231EE0E7
:108280008E231CE08E231AE08E2318E0852316E04F
:10829000832314E0842312E0832310E087230EE07D
:1082A00084230CE093230AE0812308E08E2306E078
:1082B000872304E0862302E08E2300E08023184613
:1082C0000C37BD465DF8047B704700BF80B400AF3B
:1082D000034B1B781846BD465DF8047B704700BF12
:1082E0002C33002080B586B000AF3A601A460346B2
:1082F000FB710B46BB711346BB803B68002B02D061
:10830000BB88002B0AD13B68002B02D1BB88002B15
:1083100004D07B467B61786916F074FF164B1B789E
:10832000022B24D1BB8803339BB207F10C02114608
:108330001846FFF7FDFE38613B69002B18D1FB683A
:1083400084225A70FB68FA799A70FB68BA79DA70FD
:108350003B68002B06D0FB680433BA88396818469E
:108360002DF098FEFB681846FFF712FF00E000BFF3
:108370001837BD4680BD00BF2C33002080B400AF4D
:10838000034BD3F804351846BD465DF8047B7047AF
:108390000010014080B485B000AF78600023FB601E
:1083A0000FE0FB684FF49A7202FB03F30A4A13448E
:1083B0007A689A4202D1FB68DBB206E0FB680133BF
:1083C000FB60FB68012BECDDFF2318461437BD462C
:1083D0005DF8047B704700BF3033002090B591B04A
:1083E00000AF78607B681B780C2B00F2438201A2FF
:1083F00052F823F029840200A9840200DF840200DD
:10840000A1850200E785020089870200DF8702005C
:10841000D9860200758802002585020025860200A3
:108420002987020031880200AA4B1B78002B00F03C
:10843000238207F10C0319461A20FFF779FEF8632F
:10844000FB6B002B40F01882FB68C0225A70FB685F
:1084500002333B6138697B680433102219462DF0E2
:1084600019FE7B68DB6993F90D203B691A747B6800
:108470001B7D1A463B695A747B68DB699B7BC3F39F
:108480004603DBB21A463B699A743B6903F1130059
:108490007B68DB690F33062219462DF0FBFDFB6874
:1084A0001846FFF775FEE7E107F10C0319460220B5
:1084B000FFF73EFEF863FB6B002B40F0DF81FB68AB
:1084C000C1225A707B685B68FC681846FFF762FF40
:1084D0000346A370FB681846FFF75AFECEE107F18A
:1084E0000C0319460320FFF723FEF863FB6B002BF8
:1084F00040F0C681FB68C2225A70FB6802337B6180
:108500007B685B681846FFF745FF03461A467B69A0
:108510001A707B681A7A7B695A70FB681846FFF7F5
:1085200037FEADE107F10C0319460B20FFF700FE03
:10853000F863FB6B002B40F0A581FB68C3225A70E7
:10854000FB680233FB627B685B681846FFF722FF1B
:1085500003461A46FB6A1A707B681A7AFB6A5A70DD
:108560007B68DA7AFB6A9A707B681A7BFB6ADA703E
:108570007B685A7BFB6A1A717B68DA89FB6AA3F80D
:1085800005207B681A7CFB6ADA717B68B3F81130CE
:108590009AB2FB6A1A81FB681846FFF7F9FD71E190
:1085A00007F10C0319460320FFF7C2FDF863FB6BCC
:1085B000002B40F06981FB68C4225A70FB680233CB
:1085C000BB617B685B681846FFF7E4FE03461A460A
:1085D000BB691A707B681A7ABB695A70FB681846C7
:1085E000FFF7D6FD50E107F10C0319460220FFF713
:1085F0009FFDF863FB6B002B40F04881FB68CA22AB
:108600005A70FB680233FB617B685B681846FFF7B2
:10861000C1FE03461A46FB691A70FB681846FFF74D
:10862000B7FD33E107F10C0319462C20FFF780FD5D
:10863000F863FB6B002B40F02B81FB68C5225A705E
:10864000FB6802333B637B685B681846FFF7A2FE5A
:1086500003461A463B6B1A707B68DB68D3F812201E
:108660003B6BC3F801207B68DB68DB8A9AB23B6B0B
:10867000A3F807207B68DB681B8A9AB23B6BA3F8E0
:1086800005207B68DB681B7EC3F30003DBB21A4660
:108690003B6B5A727B68DB681B7EC3F34003DBB223
:1086A0001A463B6B9A723B6B03F10B007B689B682D
:1086B000102219462DF0EEFC3B6B03F11B007B688A
:1086C000DB68102219462DF0E5FCFB681846FFF721
:1086D0005FFDDDE02E33002007F10C031946052075
:1086E000FFF726FDF863FB6B002B40F0D380FB689F
:1086F000C6225A70FB680233BB627B685B6818460F
:10870000FFF748FE03461A46BB6A1A70BB6A01228D
:108710005A70BB6A00229A70BB6A1022DA70FB683A
:108720001846FFF735FDB5E007F10C031946622046
:10873000FFF7FEFCF863FB6B002B40F0AD80FB689D
:10874000C7225A70FB6802337B637B685B681846FC
:10875000FFF720FE03461A467B6B1A707B6B581C92
:108760007B689B68402219462DF094FC7B6B03F1DB
:1087700041007B68DB68202219462DF08BFCFB68EA
:108780001846FFF705FD87E007F10C031946132093
:10879000FFF7CEFCF863FB6B002B7FD1FB68C82290
:1087A0005A70FB6802333B627B685B681846FFF7D0
:1087B000F1FD03461A463B6A1A707B681A7A3B6AD7
:1087C0005A703B6A981C7B68D9687B685B7A1A464A
:1087D0002DF060FCFB681846FFF7DAFC5EE007F15D
:1087E0000C0319460520FFF7A3FCF863FB6B002B75
:1087F00056D1FB68C6225A70FB6802337B627B68E5
:108800005B681846FFF7C6FD03461A467B6A1A7076
:108810007B6A03225A707B681A7A7B6A9A707B683B
:108820005A7A7B6ADA70FB681846FFF7B1FC37E0CA
:1088300007F10C0319460320FFF77AFCF863FB6B82
:10884000002B2FD1FB68C9225A70FB680233BB632F
:108850007B685B681846FFF79DFD03461A46BB6BB5
:108860001A707B681A7ABB6B5A70FB681846FFF760
:108870008FFC17E000BF16E000BF14E000BF12E05D
:1088800000BF10E000BF0EE000BF0CE000BF0AE038
:1088900000BF08E000BF06E000BF04E000BF02E048
:1088A00000BF00E000BF00BF4437BD4690BD00BF21
:1088B00090B587B002AF354B1B6803F40043002B23
:1088C0002BD0334B1B68032B27DD2F2131482DF094
:1088D0008BFB0346002B06D02F212E482DF084FB66
:1088E00003465C1C0EE05C212A482DF07DFB03460C
:1088F000002B06D05C2127482DF076FB03465C1C3C
:1089000000E0244CFFF73AFD0346234A009240F270
:108910000B122146042021F037F82049204811F09D
:10892000D9FD0346002B04D07B46BB60B86816F027
:1089300069FC0023FB6020E0FB684FF49A7202FBA5
:1089400003F3184A9C18FB684FF4E47202FB03F32C
:10895000154A1344184614F085FB03461946204671
:1089600011F090FD0346002B04D07B467B607868B5
:1089700016F048FCFB680133FB60FB68012BDBD978
:10898000002318461437BD4690BD00BF3C2E002082
:10899000402E00200865050034650500D83500200C
:1089A00098350020303300200436002090B597B071
:1089B00002AF78607B685B78613B092B00F2B7817E
:1089C00001A252F823F000BFF1890200358A0200AB
:1089D0006D8A0200778B02002F8D0200B78B020098
:1089E000FF8B0200498C02008D8C0200D18C0200AA
:1089F000B14B1B78002B07D07B68587800230022EE
:108A00008321FFF76FFC93E1AB4B01221A70AB4857
:108A100011F00CFF0346002B04D07B46BB63B86B00
:108A200016F0F0FB7B685878002300220021FFF746
:108A300059FC7DE1A04B1B7883F00103DBB2002BD6
:108A400007D07B685878002300228321FFF74AFC77
:108A50006EE1994B00221A7011F0F9FE7B6858788C
:108A6000002300220021FFF73DFC61E17B689B7839
:108A7000012B72D807F1180300221A605A609A601D
:108A8000DA601A615A611A767B6803F1130107F103
:108A90001803102218462DF0FDFA7B6803F123011C
:108AA00007F118031033022218462DF0F3FA7B6801
:108AB00003F1250107F118031233042218462DF0A3
:108AC000E9FA7B6803F1290107F118031633022242
:108AD00018462DF0DFFA7B6893F82B3003F0010382
:108AE000DAB297F8303062F3000387F830307B68F1
:108AF00093F82C3003F00103DAB297F8303062F3C8
:108B0000410387F830307B689B781A464FF49A739C
:108B100002FB03F36A4A9818684B0093694B6A4A50
:108B20006A4911F047FCF864FB6C002B17D17B6895
:108B30009B781A464FF49A7302FB03F3604A981825
:108B40007B68D91C7B6893F82D2007F1180301245A
:108B5000009411F065FDF86401E00B23FB647B6871
:108B60009B7887F8343007F134020123F96C6320D5
:108B7000FEF79EFCDCE0514B0093524B524A5349A6
:108B80004F4811F017FCB864BB6C002B06D10123D1
:108B9000002200214A4811F0ABFCB8647B685C7885
:108BA000B86CFFF72DFB0346194600230022204630
:108BB000FFF798FBBCE07B689B78012B12D87B68A1
:108BC0009B781A464FF49A7302FB03F33C4A9818B9
:108BD0007B68D9787B681A797B685B7911F059FDDD
:108BE000786401E00B237B647B689B783B7507F11D
:108BF00014020123796C6620FEF75AFC98E07B682A
:108C00009B78012B13D87B689B781A464FF49A7394
:108C100002FB03F32A4A98187B68D91C7B681B78EF
:108C2000023BDBB21A4611F053FD386401E00B231E
:108C30003B647B689B783B7407F110020123396C1D
:108C40006720FEF735FC73E07B689B78012B10D81A
:108C50007B689B781A464FF49A7302FB03F3184A19
:108C60001A447B6803331946104611F0C6FDF863B9
:108C700001E00B23FB637B689B783B7307F10C02DD
:108C80000123F96B6820FEF713FC51E07B68023387
:108C9000202219460C482DF0FDF97B682233402232
:108CA00019460A482DF0F6F97B685878002300220F
:108CB0000021FFF717FB3BE02E330020DD8302008D
:108CC00030330020F8350020D835002098350020BA
:108CD0007B689A78184B1A70174B002242F00102F9
:108CE0005A7000229A707B68DA78134BDA707B68CE
:108CF0001A79114B1A717B681A7A0F4B1A727B68BA
:108D0000B3F809309AB20C4BA3F809207B685A7962
:108D1000094B5A717B68DB889AB2074BDA807B6813
:108D20005878002300220021FFF7DCFA00E000BFA2
:108D300000BF5437BD4690BDF835002080B584B0E3
:108D400000AF78607B681B78073B062B00F21E8122
:108D500001A252F823F000BF218E02006B8E0200A8
:108D6000998E0200E18E0200318F0200758D0200A3
:108D7000CB8D020007F1080319461620FFF7D8F93A
:108D8000F860FB68002B40F00381BB68A5225A7095
:108D9000BB687A6812799A70BB687A6803330532C7
:108DA000106851681860596012891A81BB687A6826
:108DB0000D330F32106851681860596012891A819A
:108DC000BB681846FFF7E4F9E2E007F1080319462B
:108DD0001620FFF7ADF9F860FB68002B40F0DA8051
:108DE000BB68A6225A70BB687A6812799A70BB6811
:108DF0007A68033305321068516818605960128927
:108E00001A81BB687A680D330F3210685168186098
:108E1000596012891A81BB681846FFF7B9F9B9E0A1
:108E200007F1080319460D20FFF782F9F860FB6887
:108E3000002B40F0B180BB68A0225A70BB687A68F2
:108E400012799A70BB687A680333053210685168EA
:108E50001860596012891A81BB687A68D27B5A738C
:108E6000BB681846FFF794F996E007F10803194626
:108E70000220FFF75DF9F860FB68002B40F08E8060
:108E8000BB68A1225A70BB687A6812799A70BB6875
:108E90001846FFF77DF981E007F1080319460D2018
:108EA000FFF746F9F860FB68002B79D1BB68A22276
:108EB0005A70BB687A6812799A70BB687A6852797E
:108EC000DA70BB687A68043306321068516818603B
:108ED000596012891A81BB681846FFF759F95FE09B
:108EE00007F1080319460E20FFF722F9F860FB6826
:108EF000002B57D1BB68A3225A70BB687A681279DD
:108F00009A70BB687A685279DA70BB687A68043301
:108F10000632106851681860596012891A81BB685E
:108F20007A68127C9A73BB681846FFF731F939E00A
:108F300007F1080319461520FFF7FAF8F860FB68F7
:108F4000002B31D1BB68A4225A70BB687A681279B1
:108F50009A70BB687A6803330532106851681860EC
:108F6000596012891A817B681A69BB68C3F80D20A1
:108F7000BB687A685269C3F811207B681A7EBB68A7
:108F80005A75BB681846FFF703F90DE000BF0CE007
:108F900000BF0AE000BF08E000BF06E000BF04E039
:108FA00000BF02E000BF00E000BF00BF1037BD46B9
:108FB00080BD00BF80B500AF034B044A1A60024871
:108FC0001CF020FA00BF80BD943900203D8D0200C6
:108FD00090B59DB000AF78607B685B78D03B062B86
:108FE00010D87B681A787B685B78D03B9449CB5C5F
:108FF0009A4207D07B685878002300228421FFF72B
:1090000071F918E17B685B78D03B062B00F2FE809B
:1090100001A252F823F000BF3590020055900200E3
:1090200085900200B1900200D190020041910200AF
:109030007F91020015F02AFD78657B685C78786D79
:10904000FFF7DEF803461946002300222046FFF70B
:1090500049F9F0E07B6898787B68D91C7B68D3F885
:109060000D301A4615F07CFDB8657B685C78B86DEC
:10907000FFF7C6F803461946002300222046FFF7F3
:1090800031F9D8E07B689A787B680333194610463B
:1090900015F0C4FDF8657B685C78F86DFFF7B0F8F3
:1090A00003461946002300222046FFF71BF9C2E0C1
:1090B00015F00EFE38667B685C78386EFFF7A0F816
:1090C00003461946002300222046FFF70BF9B2E0C1
:1090D0007B689B7807F13C021146184615F014FE98
:1090E00078667B6E002B1ED197F83C3087F82830CD
:1090F00007F1290307F13D021068516818605960B3
:1091000012891A8197F8473087F83330BB6C7B633C
:10911000FB6CBB637B68587807F12802142300219D
:10912000FFF7E0F887E07B685C78786EFFF768F817
:1091300003461946002300222046FFF7D3F87AE0C1
:109140007B681B78022B07D07B68587800230022AD
:109150008421FFF7C7F86EE07B689B78184615F00E
:10916000F7FDB8667B685C78B86EFFF749F8034690
:109170001946002300222046FFF7B4F85BE07B6825
:109180001B78012B07D07B685878002300228421AC
:10919000FFF7A8F84FE007F1180302330A22002175
:1091A00018462CF019FF07F11803184615F0ECFDCE
:1091B000F866FB6E002B1CD13B7E3B727B7E7B7284
:1091C00007F10A0307F11A02106851681860596024
:1091D00012891A8197F824303B7597F825307B75F2
:1091E0007B68587807F108020E230021FFF77AF810
:1091F00021E07B685C78F86EFFF702F803461946B9
:10920000002300222046FFF76DF814E07B685B78AE
:10921000CF2B03D97B685B78DF2B04D97B463B657A
:10922000386D15F0EFFF7B6858780023002282210B
:10923000FFF758F800BF00BF7437BD4690BD00BFB0
:109240005865050090B583B000AF78607B685C78A6
:109250001CF032F80146002300222046FEF728F9D0
:1092600000BF0C37BD4690BD90B583B000AF7860AD
:109270007B685C781CF098F80146002300222046A9
:10928000FEF716F900BF0C37BD4690BD80B586B01D
:1092900000AF78607B685B8898B27B68043307F125
:1092A0000E0219460AF0E2F87861FB893B827B687E
:1092B000587807F1100202237969FEF7F9F800BF28
:1092C0001837BD4680BD80B584B000AF78607B683C
:1092D0005B889AB27B680433194610460AF02AFA72
:1092E000F8607B685B889BB23B817B68587807F1AC
:1092F00008020223F968FEF7DBF800BF1037BD460D
:1093000080BD80B584B000AF78607B685B889BB21D
:1093100018460AF0DDFBF8607B685B889BB23B81F6
:109320007B68587807F108020223F968FEF7C0F855
:1093300000BF1037BD4680BD80B5ADF5427D00AFA2
:1093400007F54273A3F54173186007F54273A3F55F
:109350003F737E221A6007F10C0207F110031146D9
:1093600018460AF01DFCC7F8040307F54273A3F57D
:109370003F731B68002B0CD107F54273A3F54173B3
:109380001B68587800230022D7F80413FEF790F8E2
:1093900020E007F54273A3F53F731B685A0007F1FD
:1093A000100107F5027318462CF074FE07F542739E
:1093B000A3F541731B68587807F54273A3F53F7313
:1093C0001B689BB25B009BB207F50272D7F80413CF
:1093D000FEF76EF800BF07F54277BD4680BD80B549
:1093E00084B000AF78600423BB817B68587807F1B4
:1093F0000C0202230021FEF75BF800BF1037BD46C8
:1094000080BD80B586B000AF78607B685B8898B21D
:109410007B689B8899B27B689A1D07F10E030AF05E
:109420003FFD7861FB893B827B68587807F1100229
:1094300002237969FEF73CF800BF1837BD4680BDAE
:1094400080B584B000AF78607B685B889AB27B6837
:109450000433194610460AF06DFEF8607B685B889D
:109460009BB23B817B68587807F108020223F968B8
:10947000FEF71EF800BF1037BD4680BD80B584B032
:1094800000AF78607B685B889BB218460AF0ECFE00
:10949000F8607B685B889BB23B817B68587807F1FA
:1094A00008020223F968FEF703F800BF1037BD4633
:1094B00080BD80B5ADF5407D00AF07F54073A3F5E5
:1094C0003F73186007F54073A3F53E737D221A6061
:1094D00007F54073A3F53F731B685B889BB207F1E8
:1094E000080207F10C0118460AF0E2FEC7F8FC0278
:1094F00007F54073A3F53E731B68002B0CD107F5ED
:109500004073A3F53F731B68587800230022D7F8F7
:10951000FC12FDF7CDFF2EE007F54073A3F53F7376
:109520001B685B889AB207F54073A3F580731A80B5
:1095300007F54073A3F53E731B685A0007F10C0151
:1095400007F50073023318462CF0A4FD07F54073AD
:10955000A3F53F731B68587807F54073A3F53E7376
:109560001B6801339BB25B009BB207F50072D7F812
:10957000FC12FDF79DFF00BF07F54077BD4680BD9B
:1095800080B584B000AF78600823BB817B685878D1
:1095900007F10C0202230021FDF78AFF00BF1037FC
:1095A000BD4680BD80B586B000AF78607B685B88C3
:1095B00098B27B689B8899B27B689A1D07F10E036D
:1095C0000AF00CFB7861FB893B827B68587807F1D5
:1095D000100202237969FDF76BFF00BF1837BD4603
:1095E00080BD80B584B000AF78607B685B889BB23B
:1095F00018460AF021FCF8607B685B889BB23B81CF
:109600007B68587807F108020223F968FDF750FFDC
:1096100000BF1037BD4680BD80B584B000AF786014
:109620000123BB817B68587807F10C0202230021DB
:10963000FDF73EFF00BF1037BD4680BD80B584B04A
:1096400000AF78607B685B889BB23B817B689B88BE
:109650009BB27B8107F10803184609F013FBF86001
:109660007B68587800230022F968FDF721FF00BFCE
:109670001037BD4680BD80B584B000AF786007F17B
:109680000C03184609F046FBBB893B81FB897B81B3
:109690007B68587807F1080204230021FDF708FFD2
:1096A00000BF1037BD4680BD80B58CB000AF78607C
:1096B0007B685B889BB207F120021146184609F0CF
:1096C000B9FCB86207F1080300221A605A609A6078
:1096D000DA601A619A820023FB62BB6A002B1FD1F9
:1096E0007B685B889BB23B8197F82030BB7207F1A7
:1096F000200318460BF05EF80346FB727B8CBB819F
:109700007B6A002B0AD0796A07F10803063310221E
:1097100018462CF0BFFC1623FB6201E00623FB6217
:109720007B685878FB6A9BB207F10802B96AFDF7BB
:10973000BFFE00BF3037BD4680BD80B5ADF5427D70
:1097400000AF07F54273A3F54173186007F5427344
:10975000A3F53F737E221A6007F10C0207F1100394
:109760001146184609F0C0FCC7F8040307F5427318
:10977000A3F53F731B68002B21D007F54273A3F5B7
:109780003F731B685A0007F1100107F50273184672
:109790002CF080FC07F54273A3F541731B685878E1
:1097A00007F54273A3F53F731B689BB25B009BB246
:1097B00007F50272D7F80413FDF77AFE0BE007F500
:1097C0004273A3F541731B68587800230022D7F831
:1097D0000413FDF76DFE00BF07F54277BD4680BD5F
:1097E00080B584B000AF78601023BB817B68587867
:1097F00007F10C0202230021FDF75AFE00BF1037CB
:10980000BD4680BD80B584B000AF78600823BB81C1
:109810007B68587807F10C0202230021FDF748FE0F
:1098200000BF1037BD4680BD80B584B000AF786002
:109830007B685B889BB207F10A021146184609F063
:109840002BFBF8607B893B817B68587807F1080225
:109850000223F968FDF72CFE00BF1037BD4680BD1E
:1098600080B584B000AF78607B68023307F10A02EC
:109870001146184609F021FBF8607B893B817B6823
:10988000587807F108020223F968FDF711FE00BFBE
:109890001037BD4680BD80B584B000AF78607B686E
:1098A0005B889BB2184609F055FBF8607B685B88C3
:1098B0009BB23B817B68587807F108020223F96864
:1098C000FDF7F6FD00BF1037BD4680BD80B584B002
:1098D00000AF78607B685B889BB207F10A02114693
:1098E000184609F02FFAF8607B893B817B6858782D
:1098F00007F108020223F968FDF7DAFD00BF10370F
:10990000BD4680BD80B584B000AF78607B6802330F
:1099100007F10A021146184609F064FAF8607B89DB
:109920003B817B68587807F108020223F968FDF74C
:10993000BFFD00BF1037BD4680BD80B584B000AF0D
:1099400078607B685B889BB2184609F05BFAF86028
:109950007B685B889BB23B817B68587807F1080283
:109960000223F968FDF7A4FD00BF1037BD4680BD96
:1099700080B58EB000AF786007F11003242200217B
:1099800018462CF029FB1BF06BFD0346FB607B683F
:10999000DB889BB207F110021146184609F04AFB1A
:1099A00078637B6B002B53D107F10803184609F04D
:1099B000B1F97B689B889AB23B899A4209D37B684C
:1099C0009B889BB21A463B8919467B890B449A4275
:1099D00002DB10237B633BE07B685B8899B207F175
:1099E000100318331A464FF6FF700AF095FC78639F
:1099F0007B6B002B2CD17B689B889BB23B837B6865
:109A00001B7ABB767B685B7A002B14BF0123002393
:109A1000DBB2FB767B689B7A3B777B681B780B2BF2
:109A200009D97B680C333B627B681B789BB20B3B8C
:109A30009BB2BB8403E000233B620023BB84FB6832
:109A40003B6307F11003002118461BF0CDFC78633F
:109A50007B68587807F10C020423796BFDF728FD29
:109A600000BF3837BD4680BD80B582B000AF78609A
:109A700015F042FD7B685878002300220021FEF794
:109A800031FC00BF0837BD4680BD80B584B000AF53
:109A900078607B685B889BB218460EF00BFFF8601D
:109AA0007B68587800230022F968FDF701FD00BFAC
:109AB0001037BD4680BD80B582B000AF78607B684E
:109AC0005878002300220821FDF7F2FC00BF083778
:109AD000BD4680BD80B58CB000AF786000233B836D
:109AE00004237B8307F124031946B86924F029FA7B
:109AF000F862FB6A002B07D07B68587800230022AD
:109B0000F96AFDF7D5FC1FE00023BB820323FB822B
:109B100007F11C031946786924F013FAF8627B6A8E
:109B2000BB6097F828303B73B7F829309BB2A7F891
:109B30000D30FB69C7F80F307B68587807F10802D1
:109B40000B23F96AFDF7B4FC3037BD4680BD000039
:109B500080B588B000AF0346B9607A60FB73FB7BC9
:109B6000002B4CD13B89002B49D17B89032B02D0A0
:109B7000042B1AD043E024490520FEF7D9FA786176
:109B80007B69002B38D17B683B611F4B1B68DA2255
:109B90005A701D4B1B683A691268C3F802201A4BB1
:109BA0001B681846FEF7F4FA29E017490820FEF76B
:109BB000BFFAF861FB69002B20D17B68BB61124BB7
:109BC0001B68D9225A70104B1B68BA691268C3F817
:109BD00002200D4B1B68BA6912799A710A4B1B68F7
:109BE000BA69B2F8052092B2A3F80720064B1B68A9
:109BF0001846FEF7CDFA02E000BF00E000BF00BF4C
:109C00002037BD4680BD00BFAC39002080B588B08C
:109C100000AF78607B681B78052B00F2098101A2F8
:109C200052F823F03D9C0200019E02004D9D02006F
:109C30007D9D0200319E0200B59D02007B681B895C
:109C4000FB61FB69EB2B01D9EB23FB61FB699BB249
:109C500014339BB27E491846FEF76AFAB861BB69B5
:109C6000002B40F0E7807A4B1B6802337B617B68F6
:109C70001A897B69A3F811207B681B7D012B08D111
:109C8000734B1B68D0225A707B68DA8A7B695A80D2
:109C900016E06F4B1B68D1225A707B68143307F1B2
:109CA0000E021146184609F07DFA0346002B04D037
:109CB0007B463B61386915F0A5FAFA897B695A80C1
:109CC0007B68DA897B691A807B681B6A184609F011
:109CD000FDFA03461A467B699A807B68DB69184661
:109CE00009F0CBFA03461A467B69DA807B6893F861
:109CF00024207B691A727B689B6A9B7BC3F34603B3
:109D0000DBB21A467B695A727B6903F10A007B68F1
:109D10009B6A0F33062219462CF0BCF97B689B6ABC
:109D200093F90D207B691A74FB69002B08D07B69BD
:109D300003F113007B685B68FA6919462CF0AAF9F5
:109D4000434B1B681846FEF723FA7CE04049052088
:109D5000FEF7EEF9B861BB69002B6DD13C4B1B6877
:109D6000D3225A703A4B1B687A68D268C3F8022033
:109D7000374B1B681846FEF70BFA5DE034490420A8
:109D8000FEF7D6F9B861BB69002B57D1304B1B6881
:109D9000D4225A702E4B1B687A6892885A802C4BBA
:109DA0001B687A68127B1A71294B1B681846FEF7EC
:109DB000EFF943E026490720FEF7BAF9B861BB691D
:109DC000002B3DD1224B1B68D8225A70204B1B68B8
:109DD0007A6812799A701E4B1B687A685279DA7029
:109DE0001B4B1B687A68D2889A80194B1B687A686B
:109DF0001289DA80164B1B681846FEF7C9F91FE076
:109E000013490520FEF794F9B861BB69002B19D1FD
:109E10000F4B1B68D2225A700D4B1B687A68526830
:109E2000C3F802200A4B1B681846FEF7B1F909E097
:109E300000BF08E000BF06E000BF04E000BF02E092
:109E400000BF00E000BF00BF2037BD4680BD00BF9F
:109E5000B039002080B500AF034B044A1A600248B5
:109E60001BF0D0FA00BF80BDA03900200D9C02007D
:109E700080B586B000AF78607B685B788F2B03D9A4
:109E80007B685B78BF2B04D97B467B61786915F0D2
:109E9000B9F97B685B78AF2B07D97B6858780023CA
:109EA00000228221FEF71EFA2EE07B685B78903B51
:109EB000DB00174A13443B617B685A783B691B7887
:109EC0009A4204D07B46FB60F86815F09BF93B6929
:109ED0005A787B681B789A420AD27B681B781946AD
:109EE0003B695B7801333A6992781344994207DD04
:109EF0007B685878002300228421FEF7F3F903E001
:109F00003B695B687868984700BF1837BD4680BDDD
:109F10006065050080B584B000AF78600023FB6009
:109F200024E01749FA6813465B0013449B000B4476
:109F300004331B68002B1DD0FA6813465B001344E2
:109F40009B000F4A13440422194678682CF034F819
:109F50000346002B07D1FA6813465B0013449B00AD
:109F6000074A134408E0FB680133FB60FB68012BE0
:109F7000D7D900E000BF002318461037BD4680BD8A
:109F8000B439002080B5C4B000AF07F58873A3F5DD
:109F90008673186007F58873A3F582731846FA2351
:109FA0001A4600212CF018F80023C7F80C313E2384
:109FB000A7F806310023C7F808313FE02F49D7F84A
:109FC000082113465B0013449B000B4404331B68B9
:109FD000002B38D007F58873A3F582731B88B7F878
:109FE00006219A4203D80C23C7F80C312CE007F560
:109FF0008873A3F582731B8807F10C029B0013443E
:10A00000981CD7F8082113465B0013449B001B4A99
:10A010001344042219462CF03DF807F58873A3F584
:10A0200082731B8801339AB207F58873A3F5827394
:10A030001A80D7F808310133C7F80831D7F808314A
:10A04000012BBBD900E000BF07F58873A3F5867329
:10A050001B68587807F58873A3F582731B889B00EB
:10A060009BB202339BB207F10C02D7F80C11FDF73B
:10A070001FFA00BF07F58877BD4680BDB4390020C0
:10A0800080B588B000AF78607B680233BB61BB6984
:10A090001846FFF73FFF786100233B827B69002B66
:10A0A00002D10523FB6109E07B695B6807F10E02C1
:10A0B0001146B8699847F861FB893B827B685878FC
:10A0C00007F110020223F969FDF7F2F900BF20370A
:10A0D000BD4680BD90B5C7B000AF07F58C73A3F542
:10A0E0008A73186007F58C73A3F58A731B680233B3
:10A0F000C7F81031D7F810311B889BB207F584726E
:10A100001146184605F094FEC7F81401D7F814312B
:10A11000002B40D107F584731846FFF7FBFEC7F804
:10A120000C01D7F80C31002B03D10523C7F81431EB
:10A1300031E007F58C73A3F5867300221A70D7F807
:10A140000C319B6807F10C021146D7F810019847B3
:10A15000C7F8140107F58C73A3F586731B78002BE1
:10A1600019D007F58C73A3F58A731B685C78D7F850
:10A170001401FEF745F80346194607F58C73A3F55D
:10A1800086731B789BB201339BB207F10C02204609
:10A19000FEF7A8F810E007F58C73A3F58A731B6827
:10A1A0005C78D7F81401FEF72BF803461946002314
:10A1B00000222046FEF796F807F58E77BD4690BD43
:10A1C00080B584B000AF78607B685B78FF2B04D1EA
:10A1D0007B46FB60F86815F015F8032203497868A0
:10A1E000FDF78CF900BF1037BD4680BD68660500DD
:10A1F00080B584B000AF78607B681B789BB207F1B4
:10A20000080211461846FDF793FFF860FB68002B23
:10A2100010D1BB6882225A70BB68981C7B68991C5D
:10A22000BB681B78013B1A462BF034FFBB6818460D
:10A23000FDF7AEFF00BF1037BD4680BD80B582B0D0
:10A2400000AF78607B685878002300228221FEF7F7
:10A2500049F800BF0837BD4680BD80B584B000AF67
:10A2600078600A23BB817B68587807F10C020223CF
:10A270000021FEF737F800BF1037BD4680BD80B51E
:10A2800082B000AF78607B6858780023002282217A
:10A29000FEF728F800BF0837BD4680BD80B582B004
:10A2A00000AF786001201BF0A7F97B685878002385
:10A2B00000228E21FEF716F800BF0837BD4680BD8C
:10A2C00090B587B000AF78607B689B78002B02D098
:10A2D00007237B613FE07B681B78023B3B617B6827
:10A2E0009B781A464FF49E7302FB03F3224A1344F1
:10A2F00004333969184625F0C1FEF860FB68002B6D
:10A3000002D104237B6126E0FB68FF221A71FB68FF
:10A3100003F111007B6803333A6919462BF0BAFE4A
:10A320007B689B781A464FF49E7302FB03F3124A34
:10A3300013440433F968184625F0EEFE7B689B78D9
:10A3400019460D4A4FF49E7301FB03F31344012297
:10A350001A7000237B617B685C787869FDF750FF99
:10A3600003461946002300222046FDF7BBFF00BF2D
:10A370001C37BD4690BD00BFCC39002090B585B0DC
:10A3800000AF78600023FB607B689B78002B02D0D5
:10A390000723FB6026E07B689B781946194A4FF437
:10A3A0009E7301FB03F313441B78012B02D0082397
:10A3B000FB6017E07B689B781A464FF49E7302FBA4
:10A3C00003F3104A13440433184625F0F7FF7B6863
:10A3D0009B7819460B4A4FF49E7301FB03F3134419
:10A3E00000221A707B685C78F868FDF709FF034665
:10A3F0001946002300222046FDF774FF00BF1437E2
:10A40000BD4690BDCC39002080B588B000AF7860E3
:10A410007B689B78002B07D07B685878002300224C
:10A420008521FDF75FFF55E07B689B781A464FF466
:10A430009E7302FB03F3294A13440433BB617B6818
:10A440009B783B730023BB730023FB6125E0BA6953
:10A45000FB69134474331B78242B06D9BA69FB6952
:10A46000134474331B78272B04D97B467B617869AE
:10A4700014F0C8FEBB7B5AB2B969FB690B44743354
:10A480001B78253B012101FA03F35BB213435BB256
:10A49000DBB2BB73FB690133FB61BB6993F87730B7
:10A4A0001A46FB699342D2D3BB691B6F03F5FA735B
:10A4B0000B4AA2FB03239B09C7F80F30BB6993F833
:10A4C00028307B737B68587807F10C020723002142
:10A4D000FDF708FF00BF2037BD4680BDCC39002006
:10A4E000D34D621090B589B000AF78607B689B78DF
:10A4F000002B02D00723FB613FE07B689B781A4664
:10A500004FF49E7302FB03F3244A134404337B612C
:10A510007B68D3F805301946786925F0FAFE07F113
:10A520000C030522002118462BF056FD0023BB61C9
:10A5300018E07B681B791A46BB6942FA03F303F003
:10A540000103002B0BD0BB69DAB2FB7B591CC9B2EB
:10A55000F9732532D2B220333B4403F8142CBB6983
:10A560000133BB61BB69022BE3D907F10C03194628
:10A57000786925F03FFE0023FB617B685C78F86911
:10A58000FDF73EFE03461946002300222046FDF754
:10A59000A9FE00BF2437BD4690BD00BFCC390020C6
:10A5A00080B584B000AF786007F10C03042200216D
:10A5B00018462BF011FD074B1B68FB607B68587831
:10A5C00007F10C0204230021FDF78CFE00BF1037B9
:10A5D000BD4680BD083B002080B582B000AF7860EA
:10A5E0000422002106482BF0F7FC7B6858780023F2
:10A5F00000220021FDF776FE00BF0837BD4680BD72
:10A60000083B002080B582B000AF00237B6021E0D2
:10A610007B684FF49E7202FB03F3124A1344181D29
:10A620007B684FF49E7202FB03F3A0330D4A1A4479
:10A630009C23002125F08AFC7B684FF49E7202FB6C
:10A6400003F3084A13440433184625F0DDFC7B6805
:10A6500001337B607B68002BDAD000BF00BF083776
:10A66000BD4680BDCC39002080B584B000AF786095
:10A670007B685B781F2B04D97B46FB60F86814F07D
:10A68000C1FD0B2203497868FCF738FF00BF103783
:10A69000BD4680BD8066050080B400AF074B1B68D7
:10A6A000B3F1FF3F04D0054B1B680133034A13602D
:10A6B00000BFBD465DF8047B704700BF083B00202B
:10A6C00080B584B000AF7860FDF700FE0346002B34
:10A6D00001D008231CE0FEF7EBF8F860FB68002BC4
:10A6E00001D0FB6814E0FDF76BFCF860FB68002B01
:10A6F00001D0FB680CE0FFF785FFFFF7ABFBFEF72F
:10A7000059FC7B68002B02D0786800F00DF800231C
:10A7100018461037BD4680BD80B500AFFDF762FC1E
:10A720000346184680BD000080B483B000AF786057
:10A73000044A7B68136000BF0C37BD465DF8047B9C
:10A74000704700BF0C3B002080B582B000AF78603E
:10A750000F4B1B68002B10D00D4B1B687A68901CA8
:10A760007A681278013A114698477B685878002336
:10A7700000220021FDF7B6FD06E07B685878002333
:10A7800000228E21FDF7AEFD00BF0837BD4680BD1B
:10A790000C3B002080B483B000AF78607B681B78EE
:10A7A0001F2B02D1044B01221A7000BF0C37BD468B
:10A7B0005DF8047B704700BF8A3E002080B582B000
:10A7C00000AF104B1B78002B01D0082315E00023AD
:10A7D0007B6001237B600C490C480FF07BFE3860E6
:10A7E0003B68002B01D03B6807E0094B59697B6847
:10A7F000002208480FF07CFE034618460837BD4685
:10A8000080BD00BF8A3E0020683E0020283E002018
:10A81000D83C0020F43C002080B584B000AF7860C4
:10A820007B681B78023B082B73D801A252F823F0F7
:10A8300097A8020055A8020079A8020013A90200F7
:10A8400013A90200CFA8020013A9020013A9020055
:10A85000EDA80200354B9B68002B5CD07B681B7A0F
:10A86000002B58D0324B01221A70304B9B687A680B
:10A87000127A104698474EE02C4BDB68002B4CD0E8
:10A880002B4B1B78002B48D0294B00221A70274BEA
:10A89000DB68984741E0274B1B7883F00103DBB26C
:10A8A000002B0CD0214B1B69002B05D0204B002224
:10A8B0001A701E4B1B699847FFF780FF2FE01B4B58
:10A8C0005B68002B2BD0194B5B68984727E0174B30
:10A8D0009B691022194618480FF0FAFEB860BB6851
:10A8E000002B1ED0B86829F017F81AE07B68DA68E8
:10A8F0007B689B681946104614F042FDF860FB68BF
:10A90000002B02D0F86829F007F80A4B01221A70D0
:10A9100008E000BF06E000BF04E000BF02E000BFA7
:10A9200000E000BF00BF1037BD4680BDD83C00200E
:10A93000893E0020883E0020F43C0020B0B58AB05B
:10A9400002AF78601F4A07F10C0307CA03C31A80DD
:10A950000233120C1A701C4A7B6814461D460FCD38
:10A960000FC495E8070084E80700174B9B69002B8C
:10A9700001D1072322E007F10C03144A0092144A84
:10A98000144915480FF016FDF861FB69002B01D042
:10A99000FB6913E0114812F065FB034619460E48A7
:10A9A0000FF070FDB861BB69002B01D0BB6905E0F9
:10A9B0000B481AF027FDFFF701FF03461846203722
:10A9C000BD46B0BDD8660500D83C002019A80200DD
:10A9D000683E0020283E0020F43C0020103B002070
:10A9E000F02D002080B483B000AF78604FF0A0431A
:10A9F00018460C37BD465DF8047B704780B584B0BF
:10AA000000AF78603B1D1846FFF7ECFFF860F86870
:10AA100000F00AF802467B6822FA03F303F0010310
:10AA200018461037BD4680BD80B483B000AF786053
:10AA30007B68D3F8043518460C37BD465DF8047BB7
:10AA40007047000080B584B000AF78600023FB60E1
:10AA50000023BB601BE00122BB6802FA03F31A4625
:10AA60007B681340002B0FD00D4ABB6813441B7842
:10AA7000184600F0ABF803461A46BB6802FA03F327
:10AA80001A46FB681343FB60BB680133BB60BB68BD
:10AA9000032BE0D9FB6818461037BD4680BD00BFC8
:10AAA000E866050090B585B000AF78600023FB60D4
:10AAB00027E00122FB6802FA03F31A467B68134081
:10AAC000002B1BD0134AFB6813441B781C46114A09
:10AAD000FB6813441B78184600F078F80346002BF7
:10AAE00014BF01230023DBB283F00103DBB203F0C8
:10AAF0000103DBB21946204600F079F8FB68013308
:10AB0000FB60FB68032BD4D900BF00BF1437BD46E0
:10AB100090BD00BFE866050080B584B000AF7860E6
:10AB2000254B1B68002B14BF01230023DBB2BB6045
:10AB3000BB68002B02D1002028F0EEFE1F4B1B68E3
:10AB40001846FFF7AFFF1C4B1B68013B1A4A136006
:10AB5000194B1B68002B2AD1194B184628F098F97D
:10AB60000023FB6020E00122FB6802FA03F31A468F
:10AB7000124B1B681340002B13D0124AFB6813447E
:10AB80001B781846104B1A68FB6822FA03F303F08F
:10AB90000103002B14BF01230023DBB2194600F090
:10ABA00026F8FB680133FB60FB68032BDBD900BF91
:10ABB0001037BD4680BD00BFAC3E0020B03E002037
:10ABC0008C3E0020E8660500B43E002080B582B0CF
:10ABD00000AF78607868FFF711FF0346002B0CBFC9
:10ABE00001230023DBB218460837BD4680BD80B57F
:10ABF00082B000AF78600B46FB70FB78002B03D06F
:10AC0000786800F075FD02E0786800F066FD00BF2E
:10AC10000837BD4680BD000080B584B000AF7860C5
:10AC20000B46FB700023FB6015E00122FB6802FA73
:10AC300003F31A467B681340002B09D00A4AFB68CD
:10AC400013441B781A46FB7819461046FFF7CFFFCE
:10AC5000FB680133FB60FB68032BE6D900BF00BF34
:10AC60001037BD4680BD00BFE86605002DE9F04302
:10AC700085B000AFF860B9607A607B68002B3DD08A
:10AC8000BB68132B3AD9204AFB6813607B685B00D2
:10AC9000013B1E4A13601C4B1B681846FFF7D2FE8F
:10ACA00003461B4A13601B4EBB6800221C46154618
:10ACB0004FF000024FF00003EB0343EA5443E2037A
:10ACC00012F5FA7843F100094FF47A724FF000035D
:10ACD000404649462AF02EFF02460B461346002204
:10ACE0001946304628F09CF80346002B07D1064B46
:10ACF0001B6801211846FFF78FFF00E000BF1437E3
:10AD0000BD46BDE8F08300BFB03E0020AC3E002051
:10AD1000B43E00208C3E002080B586B000AF00F02D
:10AD200081FC034683F00103DBB2002B08D000F066
:10AD30001FFC38613B69002B02D0386928F0ECFD1C
:10AD40003B1D00210A461A800A469A7001237B7136
:10AD500000237B6113E0134A7B6913441B781A4676
:10AD60003B1D1946104600F06FFCB860BB68002B15
:10AD700002D0B86828F0D0FD7B6901337B617B6924
:10AD8000032BE8D9084A0121084828F015F8F86093
:10AD9000FB68002B02D0F86828F0BEFD00BF183712
:10ADA000BD4680BDE866050019AB0200E4660500FB
:10ADB00080B483B000AF0346FB7197F90730002BD6
:10ADC0000BDBFB7903F01F02074997F907305B099A
:10ADD000012000FA02F241F8232000BF0C37BD46E3
:10ADE0005DF8047B704700BF00E100E080B483B0F1
:10ADF00000AF03463960FB7197F90730002B0ADB7F
:10AE00003B68DAB20C4997F907305201D2B20B44D1
:10AE100083F800230AE03B68DAB20849FB7903F0C3
:10AE20000F03043B5201D2B20B441A7600BF0C3719
:10AE3000BD465DF8047B704700E100E000ED00E0F6
:10AE400080B483B000AF78607B681B0B5BB21846A0
:10AE50000C37BD465DF8047B704780B582B000AF0B
:10AE600003460A46FB711346BB71BA7997F907305E
:10AE700011461846FFF7BAFF00BF0837BD4680BD30
:10AE800080B582B000AF0346FB7197F907301846D2
:10AE9000FFF78EFF00BF0837BD4680BD80B582B08A
:10AEA00000AF0346FB80FB88184600F024F80346F9
:10AEB0001B68012B0CBF01230023DBB218460837A7
:10AEC000BD4680BD80B584B000AF0346FB80FB88E3
:10AED000184600F010F803461A4600231360FB885A
:10AEE000184600F008F803461B68FB60FB6800BFCB
:10AEF0001037BD4680BD80B483B000AF0346FB80F1
:10AF0000FB8803F1804303F5C04318460C37BD4668
:10AF10005DF8047B7047000080B483B000AF7860B8
:10AF2000044A7B68C2F8043300BF0C37BD465DF8A5
:10AF3000047B70470060004080B483B000AF78604D
:10AF4000054BD3F804237B68134018460C37BD46E5
:10AF50005DF8047B704700BF0060004080B483B0A0
:10AF600000AF7860074A7B6803F5A27352F823307C
:10AF70001B0A03F01F0318460C37BD465DF8047B1F
:10AF8000704700BF0060004080B483B000AF7860BD
:10AF9000074A7B6803F5A27352F823301B0C03F0B9
:10AFA0000303DBB218460C37BD465DF8047B7047DF
:10AFB0000060004080B485B000AFF860B960114611
:10AFC0001A460B46FB711346BB71184AFB6803F522
:10AFD000A27352F82330154923F4981323F4F8533D
:10AFE000FA6802F5A27241F82230104AFB6803F5B4
:10AFF000A27352F82320BB681B0203F4F851FB79BB
:10B000001B0403F440331943BB791B0503F480137D
:10B010000B4306491A43FB6803F5A27341F823204A
:10B0200000BF1437BD465DF8047B704700600040E8
:10B0300080B483B000AF78604FF0A04318460C375F
:10B04000BD465DF8047B704780B584B000AF786082
:10B05000084611461A460346FB700B46BB70134662
:10B060007B703B1D1846FFF7E3FFF860FA78BB786A
:10B070005B001A437B789B001A433B7E1B0242EA2B
:10B0800003013B7F1B047A681943FB6802F5E072F9
:10B0900043F8221000BF1037BD4680BD80B584B094
:10B0A00002AF786000230193002300930023012264
:10B0B00001217868FFF7C8FF00BF0837BD4680BD93
:10B0C00080B584B000AF78600B46FB703B1D18461E
:10B0D000FFF7AEFFF8607A68FB6802F5E07253F89C
:10B0E00022307A6823F44031FB6802F5E07243F8BD
:10B0F00022107A68FB6802F5E07253F82230FA7881
:10B10000120411467A681943FB6802F5E07243F8AD
:10B11000221000BF1037BD4680BD80B584B000AF9F
:10B1200078603B1D1846FFF783FFF8607B680122BB
:10B1300002FA03F31946F86800F030F800BF103740
:10B14000BD4680BD80B584B000AF78603B1D184619
:10B15000FFF76EFFF8607B68012202FA03F31946DD
:10B16000F86800F02AF800BF1037BD4680BD80B5F2
:10B1700084B000AF78603B1D1846FFF759FFF860B8
:10B180007A68FB6802F5E07253F822301B0C03F07A
:10B190000303DBB218461037BD4680BD80B483B0D0
:10B1A00000AF786039607B683A68C3F8082500BF53
:10B1B0000C37BD465DF8047B704780B483B000AFA8
:10B1C000786039607B683A68C3F80C2500BF0C379B
:10B1D000BD465DF8047B704780B487B000AFF8606F
:10B1E000B9607A604FF0A0433B61FB687B6119E076
:10B1F0007B699B0018333B4453F8083CD3F8202567
:10B200007B681A607B699B0018333B4453F8083C09
:10B210007A681268C3F820257B6804337B607B69F9
:10B2200001337B61FA68BB6813447A699A42DFD3C1
:10B2300000BF00BF1C37BD465DF8047B704780B57A
:10B2400084B000AF78603B1D1846FFF7F1FEF86050
:10B250007B68012202FA03F31A46FB68C3F8202533
:10B2600000BF1037BD4680BD80B485B000AF7860A8
:10B270007B685B09BB600023FB60BB68002B03D1CC
:10B280004FF0FF33FB6000BF7B6803F01F037B6060
:10B29000FA687B6822FA03F303F00103002B14BF62
:10B2A00001230023DBB218461437BD465DF8047B4A
:10B2B000704780B485B000AF786039603B68FB6050
:10B2C0007B68DB08BB607B6803F007037B600122BF
:10B2D0007B6802FA03F3F968BA680A4412781340EB
:10B2E00018461437BD465DF8047B704780B485B0BE
:10B2F00000AF786039603B68FB607B68DB08BB604F
:10B300007B6803F007037B60FA68BB6813441B7813
:10B310005AB201217B6801FA03F35BB2134359B2BD
:10B32000FA68BB681344CAB21A7000BF1437BD462E
:10B330005DF8047B7047000080B483B000AF786094
:10B34000084A7B681344303393F90030B3F1FF3F70
:10B3500014BF01230023DBB218460C37BD465DF84D
:10B36000047B7047B83E002080B485B000AFF86021
:10B37000B9607A60FB70BB6859B2104AFB6813442D
:10B3800030330A461A700D49BB687A6841F82320A9
:10B39000FB7883F00103DBB2002B08D0BB68083BCD
:10B3A000FA6851B2054A13440A4683F8502000BF98
:10B3B0001437BD465DF8047B704700BFB83E0020DF
:10B3C00080B483B000AF7860054A7B6813443033A3
:10B3D000FE221A7000BF0C37BD465DF8047B704733
:10B3E000B83E002080B483B000AF7860054A7B6827
:10B3F00013443033FF221A7000BF0C37BD465DF88E
:10B40000047B7047B83E002080B582B000AF786002
:10B4100003497868FFF76AFF00BF0837BD4680BD63
:10B420000C3F002080B483B000AF7860054A7B6891
:10B430001344303393F9003018460C37BD465DF89D
:10B44000047B7047B83E002080B483B000AF7860C2
:10B45000044A7B6852F8233018460C37BD465DF825
:10B46000047B7047B83E002080B485B000AF7860A0
:10B47000074A7B681344503393F90030FB73FB7B1E
:10B4800023F0C00318461437BD465DF8047B7047AF
:10B49000B83E002080B485B000AF7860074A7B6872
:10B4A0001344503393F90030FB73FB7B9B09DBB2F1
:10B4B00018461437BD465DF8047B7047B83E00203F
:10B4C00080B588B000AFF860B9601346FB71FF2308
:10B4D000FB77FB79002B01D0002300E008237B6180
:10B4E000FB79002B01D0082300E00C233B617B6932
:10B4F000BB6112E00E4ABB6952F82330B3F1FF3F43
:10B5000008D1FB79BA68B969F868FFF72DFFBB6904
:10B51000FB7706E0BB690133BB61BA693B699A42BC
:10B52000E8D397F91F3018462037BD4680BD00BFCD
:10B53000B83E002080B483B000AF0346FB71FB79B6
:10B540000A4A4FF0FF3142F82310FB79072B06D946
:10B55000FB79083B054A1344FF2283F8502000BFC3
:10B560000C37BD465DF8047B704700BFB83E002035
:10B5700080B582B000AF284B93F85830002B03D031
:10B5800008233B603B6843E00023FB710DE0FB793F
:10B590001846FFF769FE0346002B03D0FB791846D7
:10B5A000FFF720FFFB790133FB71FB791F2BEED9ED
:10B5B0000023FB7106E0FB791846FFF7BBFFFB7920
:10B5C0000133FB71FB790B2BF5D9042200211348C1
:10B5D0002AF002FD1248FFF733FC03460621184605
:10B5E000FFF73BFC0E48FFF72BFC03461846FFF71E
:10B5F00047FC4FF4BE70FFF765FC4FF00040FFF7CB
:10B600008BFC054B012283F8582000233B603B68EC
:10B6100018460837BD4680BDB83E00200C3F0020CC
:10B620000060004080B400AF064B93F85830002B08
:10B6300014BF01230023DBB21846BD465DF8047B2E
:10B64000704700BFB83E002080B584B000AF78607E
:10B6500039600023FB607868FFF76EFE0346002B1D
:10B6600002D00823FB6033E03B689B78002B18D0A6
:10B67000012200217868FFF723FF0346FB7297F948
:10B680000B30B3F1FF3F09D097F90B003B681A78F4
:10B690003B685B787968FFF78DFC05E00423FB606D
:10B6A00002E07868FFF78CFEFB68002B10D13B6846
:10B6B0005B78012B03D17868FFF72FFD02E07868F3
:10B6C000FFF740FD7868FFF7E9FC7868FFF79CFE1C
:10B6D000FB6818461037BD4680BD80B582B000AF0C
:10B6E00078607868FFF719FD00BF0837BD4680BD58
:10B6F00080B582B000AF78607868FFF723FD00BFA7
:10B700000837BD4680BD80B584B000AF78607A68E8
:10B7100001210020FFF760FD0023FB600BE0FB68C8
:10B720009B007A6813441B68002B01D0012306E0BC
:10B73000FB680133FB60FB68002BF0D00023184648
:10B740001037BD4680BD000080B586B000AF786080
:10B7500000237B6150E02F4A7B691344503393F9F7
:10B760000030B3F1FF3F43D07869FFF77DFE3861C9
:10B7700079683869FFF79DFD0346002B39D0786959
:10B78000FFF788FE0346FB733869FFF7F0FC0346BA
:10B79000BB73BB7B022B01D1032300E002237B732D
:10B7A0007B7B19463869FFF78BFC3869FFF747FD4B
:10B7B0003869FFF737FE03461846FFF745FEB860C5
:10B7C000BB68002B15D0FB7B032B0BD0BB7B022B64
:10B7D00002D1FB7B012B05D0BB7B032B09D1FB7B6B
:10B7E000022B06D1FA7BBB6811463869984700E006
:10B7F00000BF7B6901337B617B69032BABD9786820
:10B80000FFF781FF0346002BA2D100BF00BF18370E
:10B81000BD4680BDB83E002080B588B000AF002393
:10B82000FB6100233B604FF48073FB8201233B618B
:10B830000023BB611DE0FB8A1846FFF72FFB034680
:10B84000002B0DD03869FFF777FB0346002B07D09C
:10B85000FB8A1846FFF736FBFA693B691343FB6125
:10B860003B695B003B61FB8A0433FB82BB690133AC
:10B87000BB61BB69072BDED94FF4BE70FFF70EFB2F
:10B880000346002B0DD04FF4BE70FFF71BFBFB6986
:10B8900043F00043FB613B461A4601210020FFF7BD
:10B8A0009BFCFB69DBB2002B27D001233B6100230B
:10B8B000BB611FE03A69FB691340002B14D0B869E3
:10B8C000FFF74CFBF860B869FFF75EFB0346FB72BD
:10B8D000B869FFF7B9FD78607B68002B04D0FA7A6D
:10B8E0007B681146F86898473B695B003B61BB6920
:10B8F0000133BB61BB69072BDCD9FB69002B03DA81
:10B900003B461846FFF720FF00BF2037BD4680BDED
:10B9100080B400AF034BD3F804351846BD465DF83C
:10B92000047B704700100140F0B5D9B00CAF07F5AB
:10B930009873A3F58A73186007F59873A3F58A7353
:10B940001B68002B00F0278107F59873A3F58A7315
:10B950001B68C7F82831924B1B6803F48043002B07
:10B9600000F081808F4B1B68032B7CDD1023C7F810
:10B970002431D7F82431802B28BF8023C7F8243105
:10B980000023C7F82C3132E007F59873A3F58A73CA
:10B990001A68D7F82C3113441B7887F82331824B6F
:10B9A0001A6897F823311B09DBB203F00F031A441E
:10B9B000D7F82C315B00117807F59872A2F58872E0
:10B9C000D154794B1A6897F8233103F00F031A44C6
:10B9D000D7F82C315B000133117807F59872A2F586
:10B9E0008872D154D7F82C310133C7F82C31D7F8ED
:10B9F0002C21D7F824319A42C6D3D7F824315B00E2
:10BA000007F59872A2F588720021D1542F2167485A
:10BA10002AF0EAFA0346002B06D02F2163482AF0C9
:10BA2000E3FA03465C1C0EE05C2160482AF0DCFA75
:10BA30000346002B06D05C215C482AF0D5FA034669
:10BA40005C1C00E0594CFFF763FF024607F120033E
:10BA50000293574B0193574B0093134642222146C2
:10BA600004201DF091FF4E4B1B6803F48043002B14
:10BA700000F092804B4B1B68032B40F38D802F21ED
:10BA80004A482AF0B1FA0346002B06D02F21474836
:10BA90002AF0AAFA03465C1C0EE05C2143482AF017
:10BAA000A3FA0346002B06D05C2140482AF09CFAFA
:10BAB00003465C1C00E03D4CFFF72AFF0546D7F823
:10BAC00028311B681A06D7F828311B681B0203F4BB
:10BAD0007F031A43D7F828311B681B0A03F47F43FE
